S022000063616C63756C61746F725F776974685F6C63645F6B65797061642E737265634E
S11300000C942A000C943F000C943F000C943F0085
S11300100C943F000C943F000C943F000C943F0060
S11300200C943F000C943F000C943F000C943F0050
S11300300C943F000C943F000C943F000C943F0040
S11300400C943F000C943F000C943F000C943F0030
S11300500C943F0011241FBECFE5D8E0DEBFCDBF16
S113006010E0A0E6B0E0E8EFFAE002C005900D92DF
S1130070AC39B107D9F70E94E7010C947A050C94C6
S1130080000081B3807F81BB81B3806F81BB8FEF20
S113009082BB08950F931F93CF93DF9340E050E00A
S11300A09DC032B3E0E6F0E081E090E08C01008096
S11300B002C0000F111F0A94E2F7EC01028002C093
S11300C0CC0FDD1F0A94E2F7DC01048002C0AA0F02
S11300D0BB1F0A94E2F7BC01068002C0660F771FBB
S11300E00A94E2F72C2F202B2A2B262B232B22BB1E
S11300F022B3FA01EE0FFF1FE05AFF4F008002C047
S1130100880F991F0A94E2F78095822382BB60E0EE
S113011070E05EC080B3FB01EE0FFF1FE859FF4F94
S1130120208190E0022E02C0959587950A94E2F70B
S113013080FD4CC080B390E0022E02C09595879557
S11301400A94E2F780FFF6CF41305105C9F024F458
S11301504115510541F03AC042305105F1F04330A8
S1130160510541F133C061157105F1F1613071053B
S1130170E9F162307105E1F16330710539F53AC096
S113018061157105C9F161307105C1F16230710504
S1130190B9F163307105D1F435C061157105A1F170
S11301A06130710599F16230710591F16330710527
S11301B069F430C06115710579F16130710571F12F
S11301C06230710569F16330710561F16F5F7F4FD2
S11301D0643071050CF49ECF4F5F5F4F443051057E
S11301E00CF45FCF81E41FC087E31DC084E31BC010
S11301F081E319C08FE317C088E315C085E313C0FA
S113020082E311C080E30FC089E30DC086E30BC015
S113021083E309C08DE307C08FE205C08AE203C00F
S11302208DE201C08BE2DF91CF911F910F91089570
S113023088B3877F88BB2FE788E391E02150804013
S11302409040E1F700C0000088B3886088BB08953F
S11302508AB31ABA88B3846088BB88B38D7F88BB9D
S11302600E9418018FEF8ABB88B38B7F88BB0895E7
S1130270CF93C82F0E942801CBBB88B3897F88BB4A
S11302800E941801CF91089581E00E9438010895D9
S11302908FE39CE90197F1F700C0000087B38E60FB
S11302A087BB88B3817F88BB8FEF8ABB8FE295E7DA
S11302B00197F1F700C000000E94440188E30E9406
S11302C0380186E00E94380180E80E9438018FE0FE
S11302D00E9438010895CF93C82F0E94280188B343
S11302E0826088BBCBBB88B3826088BB88B38B7FBA
S11302F088BB0E941801CF910895CF93DF93C82F34
S1130300D62F811106C0603120F480E8860F0E9448
S11303103801C13031F4D03120F480EC8D0F0E94CB
S11303203801DF91CF9108950F931F93CF93DF93FB
S11303308C01C0E0D0E018C021960F5F1F4F0E94CF
S11303406B01C031D10529F460E081E00E947D0198
S11303500BC0C032D10544F00E94440160E080E04B
S11303600E947D01C0E0D0E0F80180818111E4CFDA
S1130370DF91CF911F910F9108950F931F93CF9306
S1130380DF9300D000D000D0CDB7DEB79F938F931A
S113039080E790E09F938F938E010F5F1F4F1F9311
S11303A00F930E949002C8010E9494010F900F9035
S11303B00F900F900F900F9026960FB6F894DEBF13
S11303C00FBECDBFDF91CF911F910F9108950E9471
S11303D048010E9441008FE790E00E9494012FEFB2
S11303E084E39CE0215080409040E1F700C000008D
S11303F00E944401D0E0E12CF12C00E010E00BC09D
S1130400DC2ED1E008C0DC2ED1E005C0DC2ED1E02A
S113041002C0DC2ED1E00E944A00C82F8F3319F0AD
S11304208134C9F308C00E944401D0E0E12CF12CCE
S113043000E010E0F0CF0E946B01CD3371F560E075
S113044081E00E947D012AE2D2120AC00E9DC00101
S11304500F9D900D1E9D900D11240E94BD01DBCFB8
S11304608FE2D81208C0C801B7010E947C02CB01F8
S11304700E94BD01D0CF9BE2D91206C0C8018E0DE7
S11304809F1D0E94BD01C7CF2DE2D212C4CFC80167
S11304908E199F090E94BD01BECFCA3209F4B0CFA4
S11304A0CF3209F4B0CFCD3209F4B0CFCB3209F456
S11304B0B0CFD11110C0C801880F991F000F111FB0
S11304C0000F111F000F111F080F191F0C0F111D12
S11304D000531109A0CFC701880F991FEE0CFF1C10
S11304E0EE0CFF1CEE0CFF1CE80EF91EEC0EF11CCA
S11304F080E3E81AF1088FCFAA1BBB1B51E107C0A8
S1130500AA1FBB1FA617B70710F0A61BB70B881F9F
S1130510991F5A95A9F780959095BC01CD0108952E
S1130520AEE0B0E0E6E9F2E00C9451050D891E89D5
S113053086E08C831A8309838FEF9FE79E838D83E4
S1130540AE01475E5F4F6F89788DCE0101960E94A0
S1130550B202EF81F885E00FF11F10822E96E4E0DD
S11305600C946D05ABE0B0E0E8EBF2E00C944305CD
S11305706C017B018A01FC0117821682838181FF51
S1130580CCC1CE0101963C01F6019381F70193FDA4
S1130590859193FF81917F01882309F4BAC1853243
S11305A039F493FD859193FF81917F01853229F47C
S11305B0B60190E00E94A904E7CF912C212C312CA4
S11305C0FFE1F315D8F08B3279F038F4803279F00A
S11305D08332A1F4232D20611DC08D3261F080335C
S11305E069F4232D216016C0832D8260382EE32DFB
S11305F0E4603E2E2AC0F32DF8601DC037FC2DC0E8
S113060020ED280F2A3040F08E32B9F436FC81C137
S1130610232D2064322E19C036FE06C08AE0989E2F
S1130620200D1124922E11C0EAE02E9E200D1124DB
S1130630222EF32DF0623F2E08C08C3621F4832D38
S11306408068382E02C0883641F4F70193FD859105
S113065093FF81917F018111B3CF982F9F7D955492
S1130660933028F40C5F1F4F9FE399830DC08336AA
S113067031F0833771F0833509F059C021C0F80196
S1130680808189830E5F1F4F88248394912C5301AA
S113069013C02801F2E04F0E511CF801A080B18074
S11306A036FE03C0692D70E002C06FEF7FEFC50115
S11306B00E949E044C018201F32DFF773F2E16C049
S11306C0280122E0420E511CF801A080B18036FEC0
S11306D003C0692D70E002C06FEF7FEFC5010E9477
S11306E093044C01F32DF0683F2E820133FC1BC0B0
S11306F0822D90E088169906B0F4B60180E290E06D
S11307000E94A9042A94F4CFF50137FC859137FEA1
S113071081915F01B60190E00E94A90421102A94FE
S113072021E0821A91088114910471F7E8C084369B
S113073011F0893641F5F80137FE07C060817181F7
S1130740828193810C5F1F4F08C060817181072EE5
S1130750000C880B990B0E5F1F4FF32DFF763F2E75
S113076097FF09C090958095709561957F4F8F4F45
S11307709F4FF0683F2E2AE030E0A3010E94E50479
S1130780882E861845C0853731F4232D2F7EB22E4E
S11307902AE030E025C0932D997FB92E8F36C1F021
S11307A018F4883579F0B5C0803719F0883721F00E
S11307B0B0C0E92FE061BE2EB4FE0DC0FB2DF46085
S11307C0BF2E09C034FE0AC0292F2660B22E06C0EF
S11307D028E030E005C020E130E002C020E132E052
S11307E0F801B7FE07C060817181828193810C5F3B
S11307F01F4F06C06081718180E090E00E5F1F4F43
S1130800A3010E94E504882E8618FB2DFF773F2E56
S113081036FE0DC0232D2E7FA22E891458F434FEEB
S11308200BC032FC09C0832D8E7EA82E05C0B82CC7
S1130830A32C03C0B82C01C0B92CA4FE0FC0FE0128
S1130840E80DF11D8081803321F49A2D997EA92E23
S113085009C0A2FE06C0B394B39404C08A2D86785E
S113086009F0B394A3FC11C0A0FE06C0B21488F42E
S1130870280C922C9B180EC0B21460F4B60180E2CE
S113088090E00E94A904B394F7CFB21418F42B1883
S113089002C0982C212CA4FE10C0B60180E390E085
S11308A00E94A904A2FE17C0A1FC03C088E790E03F
S11308B002C088E590E0B6010CC08A2D867859F014
S11308C0A1FE02C08BE201C080E2A7FC8DE2B6016A
S11308D090E00E94A904891438F4B60180E390E002
S11308E00E94A9049A94F7CF8A94F301E80DF11DAC
S11308F08081B60190E00E94A9048110F5CF2220E6
S113090009F442CEB60180E290E00E94A9042A9440
S1130910F6CFF6018681978102C08FEF9FEF2B9669
S1130920E2E10C945F05FC010590615070400110F8
S1130930D8F7809590958E0F9F1F0895FC01615004
S1130940704001900110D8F7809590958E0F9F1FED
S113095008950F931F93CF93DF93FB01238121FD10
S113096003C08FEF9FEF2CC022FF16C04681578132
S1130970248135814217530744F4A081B1819D013C
S11309802F5F3F4F318320838C93268137812F5FE4
S11309903F4F3783268314C08B01EC01FB01008495
S11309A0F185E02D0995892BE1F6D80116968D91F4
S11309B09C911797019617969C938E931697CE0148
S11309C0DF91CF911F910F910895FA01AA27283042
S11309D051F1203181F1E8946F936E7F6E5F7F4F08
S11309E08F4F9F4FAF4FB1E03ED0B4E03CD0670F84
S11309F0781F891F9A1FA11D680F791F8A1F911DD7
S1130A00A11D6A0F711D811D911DA11D20D009F426
S1130A1068943F912AE0269F11243019305D319368
S1130A20DEF6CF010895462F4770405D4193B3E051
S1130A300FD0C9F7F6CF462F4F70405D4A3318F0F8
S1130A40495D31FD4052419302D0A9F7EACFB4E0A9
S1130A50A6959795879577956795BA95C9F7009761
S1130A606105710508959B01AC010A2E0694579502
S1130A70479537952795BA95C9F7620F731F841F59
S1130A80951FA01D08952F923F924F925F926F92EF
S1130A907F928F929F92AF92BF92CF92DF92EF920A
S1130AA0FF920F931F93CF93DF93CDB7DEB7CA1B8B
S1130AB0DB0B0FB6F894DEBF0FBECDBF09942A88B6
S1130AC0398848885F846E847D848C849B84AA845E
S1130AD0B984C884DF80EE80FD800C811B81AA81EB
S1130AE0B981CE0FD11D0FB6F894DEBF0FBECDBFB6
S10B0AF0ED010895F894FFCF15
S1130AF804000500060007000000010002000300CE
S1130B082564002D00247325642E25303464007771
S1130B18656C636F6D6520746F2042656C6C6F2023
S10F0B2863616C63756C61746F72000093
S9030000FC
