S010000061746D65676133322E7372656340
S11300000C942A000C9447000C9447000C9447006D
S11300100C9447000C9447000C9447000C94470040
S11300200C9447000C9447000C9433040C940C0477
S11300300C94E2030C9447000C9447000C94470082
S11300400C94BB030C9447000C9447000C94470099
S11300500C94470011241FBECFE5D8E0DEBFCDBF0E
S113006010E0A0E6B0E0ECEDFEE002C005900D92D9
S1130070AC39B107D9F720E0ACE9B0E001C01D927A
S1130080A73AB207E1F70E94B6030C946C070C94EC
S113009000002FEF3FEFFC01318320830895FC0122
S11300A0208131812336310561F02F5F3F4F318349
S11300B020832F5F3F4F220F331FE20FF31F718303
S11300C060830895FC0180819181019619F481E097
S11300D090E0089580E090E00895CF93DF93EC01E1
S11300E00E946200892B81F4888199819C012150AE
S11300F0310939832883FC013196EE0FFF1FEC0F81
S1130100FD1F8081918102C08FEF9FEFDF91CF911E
S11301100895CF93DF93EC010E946200892B51F480
S1130120E881F9813196EE0FFF1FEC0FFD1F8081EE
S1130130918102C08FEF9FEFDF91CF9108958B32B1
S113014049F08D3251F08A3259F08F3261F481E0F6
S113015090E0089581E090E0089581E090E00895B2
S113016081E090E0089580E090E008958B3249F0BA
S113017018F48A3261F008C08D3219F08F3239F0E8
S113018003C081E090E0089580E090E0089582E06B
S113019090E008954B3249F018F44A3271F01CC0D3
S11301A04D3239F04F3289F017C09C01260F371FAA
S11301B018C09C01261B370B14C0869F9001879F93
S11301C0300D969F300D11240CC06115710539F066
S11301D00E945A049B0105C02FEF3FEF02C02FEF8E
S11301E03FEFC90108958F929F92AF92BF92CF9231
S11301F0DF92EF92FF920F931F93CF93DF93CDB7CC
S1130200DEB7C459D1400FB6F894DEBF0FBECDBFE0
S11302107C01CE0101960E944900CE0185539F4F77
S11302200E94490000E010E068C0282F30E020530D
S113023031092A30310518F5B90111C09B01220F8B
S1130240331F660F771F660F771F660F771F620FC6
S1130250731F90E0C097680F791F0F5F1F4FF7015E
S1130260E00FF11F8181282F30E0205331092A301B
S1130270310520F3CE0101960E944F003CC00E943C
S11302809F00892BD1F437C0CE0101960E946D00E6
S11302904C01CE0101960E946D006C01CE01855384
S11302A09F4F0E946D00482FB401C6010E94CA00EE
S11302B0BC01CE0101960E944F00CE0185539F4F91
S11302C00E946200892B79F4CE0185539F4F0E94CE
S11302D089000E94B6006C01F50180810E94B6007D
S11302E0C816D9068CF6F501608170E0CE018553FD
S11302F09F4F0E944F000F5F1F4F5701A00EB11E6A
S1130300F5018081811191CF19C0CE0101960E941F
S11303106D007C01CE0101960E946D008C01CE011E
S113032085539F4F0E946D00482FB701C8010E945A
S1130330CA00BC01CE0101960E944F00CE01855334
S11303409F4F0E946200892B01F3CE0101960E9407
S11303506D00CC56DE4F0FB6F894DEBF0FBECDBF96
S1130360DF91CF911F910F91FF90EF90DF90CF908D
S1130370BF90AF909F908F900895CF93DF93CDB7A8
S1130380DEB7C456D1090FB6F894DEBF0FBECDBF99
S11303900E9412030E94070280E790E00E945F031C
S11303A02FEF84E39CE0215080409040E1F700C0AF
S11303B000000E940E03E12CF12C0E941002182F61
S11303C08F3319F08134C9F303C00E940E03F5CFB3
S11303D00E9435031D3381F4E1E0F0E0EC0FFD1FD2
S11303E0EE0DFF1D1082CE0101960E94F3000E94C3
S11303F08C03E12CF12CE1CFE1E0F0E0EC0FFD1FE8
S1130400EE0DFF1D10832FEFE21AF20AD6CF81B34F
S1130410807F81BB81B3806F81BB8FEF82BB0895E6
S11304200F931F93CF93DF9340E050E09DC032B30E
S1130430E0E6F0E081E090E08C01008002C0000F73
S1130440111F0A94E2F7EC01028002C0CC0FDD1FF9
S11304500A94E2F7DC01048002C0AA0FBB1F0A94CD
S1130460E2F7BC01068002C0660F771F0A94E2F728
S11304702C2F202B2A2B262B232B22BB22B3FA0131
S1130480EE0FFF1FE05AFF4F008002C0880F991F34
S11304900A94E2F78095822382BB60E070E05EC03C
S11304A080B3FB01EE0FFF1FE859FF4F208190E05E
S11304B0022E02C0959587950A94E2F780FD4CC000
S11304C080B390E0022E02C0959587950A94E2F7D6
S11304D080FFF6CF41305105C9F024F44115510590
S11304E041F03AC042305105F1F04330510541F139
S11304F033C061157105F1F161307105E9F16230C4
S11305007105E1F16330710539F53AC06115710582
S1130510C9F161307105C1F162307105B9F163301F
S11305207105D1F435C061157105A1F16130710512
S113053099F16230710591F16330710569F430C04D
S11305406115710579F16130710571F162307105E0
S113055069F16330710561F16F5F7F4F643071053C
S11305600CF49ECF4F5F5F4F443051050CF45FCFC6
S113057081E41FC087E31DC084E31BC081E319C06D
S11305808FE317C088E315C085E313C082E311C06D
S113059080E30FC089E30DC086E30BC083E309C089
S11305A08DE307C08FE205C08AE203C08DE201C07B
S11305B08BE2DF91CF911F910F91089588B38860EA
S11305C088BB8FE99FE00197F1F700C0000088B372
S11305D0877F88BB08958AB31ABA88B3846088BBBE
S11305E088B38D7F88BB0E94DE028AB38FEF8ABBFB
S11305F088B38B7F88BB0895CF93C82F0E94EB02EA
S1130600CBBB88B3897F88BB8FEC97E00197F1F768
S113061000C000000E94DE02CF91089581E00E9494
S1130620FC0208958FE99FE00197F1F700C00000F4
S113063087B38E6087BB88B3817F88BB8FEF8ABB0B
S11306408FE99FE00197F1F700C000000E940E03BC
S113065088E30E94FC0286E00E94FC0280E80E947B
S1130660FC028CE00E94FC020895CF93C82F0E94E4
S1130670EB02CBBB88B38B7F88BB88B3826088BB1B
S11306808FEC97E00197F1F700C000000E94DE02B2
S1130690CF9108958130910541F46031710570F472
S11306A080E8860F0E94FC020895029739F46031B5
S11306B0710520F480EC860F0E94FC0208950F93CC
S11306C01F93CF93DF938C01C0E0D0E01CC0219630
S11306D00F5F1F4F0E943503C031D10539F460E02C
S11306E070E082E090E00E944A030DC0C032D10560
S11306F054F00E940E0360E070E081E090E00E94FC
S11307004A03C0E0D0E0F80180818111E0CFDF919D
S1130710CF911F910F9108950F931F93CF93DF9360
S113072000D000D000D0CDB7DEB79F938F938CE874
S113073090E09F938F938E010F5F1F4F1F930F9332
S11307400E948204C8010E945F030F900F900F90D3
S11307500F900F900F9026960FB6F894DEBF0FBE41
S1130760CDBFDF91CF911F910F9108950E94BD01DC
S113077080E090E008951F920F920FB60F9211241B
S11307802F933F934F935F936F937F938F939F9395
S1130790AF93BF93EF93FF93E091A500F091A60070
S11307A00995FF91EF91BF91AF919F918F917F91A7
S11307B06F915F914F913F912F910F900FBE0F90CA
S11307C01F9018951F920F920FB60F9211242F931A
S11307D03F934F935F936F937F938F939F93AF93C5
S11307E0BF93EF93FF93E0919C00F0919D000780ED
S11307F0F085E02D0995FF91EF91BF91AF919F9105
S11308008F917F916F915F914F913F912F910F90B5
S11308100FBE0F901F9018951F920F920FB60F9254
S113082011242F933F934F935F936F937F938F93F1
S11308309F93AF93BF93EF93FF93E0919E00F0914A
S11308409F000995FF91EF91BF91AF919F918F9177
S11308507F916F915F914F913F912F910F900FBEB8
S11308600F901F9018951F920F920FB60F9211249C
S11308702F933F934F935F936F937F938F939F93A4
S1130880AF93BF93EF93FF93E0919E00F0919F008D
S11308900995FF91EF91BF91AF919F918F917F91B6
S11308A06F915F914F913F912F910F900FBE0F90D9
S11308B01F90189597FB072E16F4009407D077FD28
S11308C009D00E946E0407FC05D03EF490958195F2
S11308D09F4F0895709561957F4F0895AA1BBB1B88
S11308E051E107C0AA1FBB1FA617B70710F0A61B2C
S11308F0B70B881F991F5A95A9F780959095BC014D
S1130900CD010895AEE0B0E0E8E8F4E00C944307CC
S11309100D891E8986E08C831A8309838FEF9FE7F4
S11309209E838D83AE01475E5F4F6F89788DCE01C4
S113093001960E94A404EF81F885E00FF11F108254
S11309402E96E4E00C945F07ABE0B0E0EAEAF4E052
S11309500C9435076C017B018A01FC011782168215
S1130960838181FFCCC1CE0101963C01F6019381C4
S1130970F70193FD859193FF81917F01882309F409
S1130980BAC1853239F493FD859193FF81917F013A
S1130990853229F4B60190E00E949B06E7CF912CA2
S11309A0212C312CFFE1F315D8F08B3279F038F497
S11309B0803279F08332A1F4232D20611DC08D3261
S11309C061F0803369F4232D216016C0832D826089
S11309D0382EE32DE4603E2E2AC0F32DF8601DC0AE
S11309E037FC2DC020ED280F2A3040F08E32B9F4A8
S11309F036FC81C1232D2064322E19C036FE06C078
S1130A008AE0989E200D1124922E11C0EAE02E9EB9
S1130A10200D1124222EF32DF0623F2E08C08C36B7
S1130A2021F4832D8068382E02C0883641F4F70102
S1130A3093FD859193FF81917F018111B3CF982F0D
S1130A409F7D9554933028F40C5F1F4F9FE3998347
S1130A500DC0833631F0833771F0833509F059C006
S1130A6021C0F801808189830E5F1F4F88248394FD
S1130A70912C530113C02801F2E04F0E511CF801D0
S1130A80A080B18036FE03C0692D70E002C06FEF14
S1130A907FEFC5010E9490064C018201F32DFF7780
S1130AA03F2E16C0280122E0420E511CF801A080FE
S1130AB0B18036FE03C0692D70E002C06FEF7FEF96
S1130AC0C5010E9485064C01F32DF0683F2E82017A
S1130AD033FC1BC0822D90E088169906B0F4B60151
S1130AE080E290E00E949B062A94F4CFF50137FC43
S1130AF0859137FE81915F01B60190E00E949B06CB
S1130B0021102A9421E0821A91088114910471F72A
S1130B10E8C0843611F0893641F5F80137FE07C084
S1130B2060817181828193810C5F1F4F08C0608155
S1130B307181072E000C880B990B0E5F1F4FF32D4C
S1130B40FF763F2E97FF09C090958095709561952B
S1130B507F4F8F4F9F4FF0683F2E2AE030E0A30174
S1130B600E94D706882E861845C0853731F4232D78
S1130B702F7EB22E2AE030E025C0932D997FB92E26
S1130B808F36C1F018F4883579F0B5C0803719F084
S1130B90883721F0B0C0E92FE061BE2EB4FE0DC04D
S1130BA0FB2DF460BF2E09C034FE0AC0292F266035
S1130BB0B22E06C028E030E005C020E130E002C0DB
S1130BC020E132E0F801B7FE07C0608171818281C3
S1130BD093810C5F1F4F06C06081718180E090E0BB
S1130BE00E5F1F4FA3010E94D706882E8618FB2D87
S1130BF0FF773F2E36FE0DC0232D2E7FA22E8914A3
S1130C0058F434FE0BC032FC09C0832D8E7EA82E0E
S1130C1005C0B82CA32C03C0B82C01C0B92CA4FE69
S1130C200FC0FE01E80DF11D8081803321F49A2D5F
S1130C30997EA92E09C0A2FE06C0B394B39404C041
S1130C408A2D867809F0B394A3FC11C0A0FE06C0D7
S1130C50B21488F4280C922C9B180EC0B21460F4C1
S1130C60B60180E290E00E949B06B394F7CFB214E1
S1130C7018F42B1802C0982C212CA4FE10C0B60125
S1130C8080E390E00E949B06A2FE17C0A1FC03C073
S1130C9088E790E002C088E590E0B6010CC08A2D98
S1130CA0867859F0A1FE02C08BE201C080E2A7FC65
S1130CB08DE2B60190E00E949B06891438F4B601D7
S1130CC080E390E00E949B069A94F7CF8A94F30104
S1130CD0E80DF11D8081B60190E00E949B06811011
S1130CE0F5CF222009F442CEB60180E290E00E94C2
S1130CF09B062A94F6CFF6018681978102C08FEF76
S1130D009FEF2B96E2E10C945107FC010590615092
S1130D1070400110D8F7809590958E0F9F1F08950D
S1130D20FC016150704001900110D8F780959095B6
S1130D308E0F9F1F08950F931F93CF93DF93FB0193
S1130D40238121FD03C08FEF9FEF2CC022FF16C02B
S1130D5046815781248135814217530744F4A08189
S1130D60B1819D012F5F3F4F318320838C93268176
S1130D7037812F5F3F4F3783268314C08B01EC01EB
S1130D80FB010084F185E02D0995892BE1F6D8015A
S1130D9016968D919C911797019617969C938E9316
S1130DA01697CE01DF91CF911F910F910895FA010B
S1130DB0AA27283051F1203181F1E8946F936E7F96
S1130DC06E5F7F4F8F4F9F4FAF4FB1E03ED0B4E087
S1130DD03CD0670F781F891F9A1FA11D680F791FC8
S1130DE08A1F911DA11D6A0F711D811D911DA11DD9
S1130DF020D009F468943F912AE0269F11243019E9
S1130E00305D3193DEF6CF010895462F4770405D83
S1130E104193B3E00FD0C9F7F6CF462F4F70405D32
S1130E204A3318F0495D31FD4052419302D0A9F78D
S1130E30EACFB4E0A6959795879577956795BA9587
S1130E40C9F700976105710508959B01AC010A2E4D
S1130E5006945795479537952795BA95C9F7620F24
S1130E60731F841F951FA01D08952F923F924F92C8
S1130E705F926F927F928F929F92AF92BF92CF9226
S1130E80DF92EF92FF920F931F93CF93DF93CDB72F
S1130E90DEB7CA1BDB0B0FB6F894DEBF0FBECDBFA7
S1130EA009942A88398848885F846E847D848C8478
S1130EB09B84AA84B984C884DF80EE80FD800C8181
S1130EC01B81AA81B981CE0FD11D0FB6F894DEBF64
S10F0ED00FBECDBFED010895F894FFCFD4
S1130EDC04000500060007000000010002000300E6
S1130EEC77656C636F6D6520746F2042656C6C6FF5
S1130EFC2063616C63756C61746F72002564002DE2
S10F0F0C00247325642E2530346400009A
S9030000FC
